{
  "contractName": "Casino",
  "abi": [
    {
      "inputs": [
        {
          "internalType": "uint256",
          "name": "_minimumBet",
          "type": "uint256"
        }
      ],
      "stateMutability": "nonpayable",
      "type": "constructor"
    },
    {
      "inputs": [],
      "name": "maxAmountOfBets",
      "outputs": [
        {
          "internalType": "uint256",
          "name": "",
          "type": "uint256"
        }
      ],
      "stateMutability": "view",
      "type": "function"
    },
    {
      "inputs": [],
      "name": "minimumBet",
      "outputs": [
        {
          "internalType": "uint256",
          "name": "",
          "type": "uint256"
        }
      ],
      "stateMutability": "view",
      "type": "function"
    },
    {
      "inputs": [],
      "name": "numberOfBets",
      "outputs": [
        {
          "internalType": "uint256",
          "name": "",
          "type": "uint256"
        }
      ],
      "stateMutability": "view",
      "type": "function"
    },
    {
      "inputs": [],
      "name": "owner",
      "outputs": [
        {
          "internalType": "address payable",
          "name": "",
          "type": "address"
        }
      ],
      "stateMutability": "view",
      "type": "function"
    },
    {
      "inputs": [
        {
          "internalType": "address",
          "name": "",
          "type": "address"
        }
      ],
      "name": "playerInfo",
      "outputs": [
        {
          "internalType": "uint256",
          "name": "amountBet",
          "type": "uint256"
        },
        {
          "internalType": "uint256",
          "name": "numberSelected",
          "type": "uint256"
        }
      ],
      "stateMutability": "view",
      "type": "function"
    },
    {
      "inputs": [
        {
          "internalType": "uint256",
          "name": "",
          "type": "uint256"
        }
      ],
      "name": "players",
      "outputs": [
        {
          "internalType": "address payable",
          "name": "",
          "type": "address"
        }
      ],
      "stateMutability": "view",
      "type": "function"
    },
    {
      "inputs": [],
      "name": "totalBet",
      "outputs": [
        {
          "internalType": "uint256",
          "name": "",
          "type": "uint256"
        }
      ],
      "stateMutability": "view",
      "type": "function"
    },
    {
      "inputs": [],
      "name": "kill",
      "outputs": [],
      "stateMutability": "nonpayable",
      "type": "function"
    },
    {
      "inputs": [],
      "name": "recieve",
      "outputs": [],
      "stateMutability": "payable",
      "type": "function"
    },
    {
      "inputs": [
        {
          "internalType": "uint256",
          "name": "numberSelected",
          "type": "uint256"
        }
      ],
      "name": "bet",
      "outputs": [],
      "stateMutability": "payable",
      "type": "function"
    },
    {
      "inputs": [],
      "name": "generateNumberWinner",
      "outputs": [],
      "stateMutability": "nonpayable",
      "type": "function"
    },
    {
      "inputs": [
        {
          "internalType": "address",
          "name": "player",
          "type": "address"
        }
      ],
      "name": "checkPlayerExists",
      "outputs": [
        {
          "internalType": "bool",
          "name": "",
          "type": "bool"
        }
      ],
      "stateMutability": "view",
      "type": "function"
    },
    {
      "inputs": [
        {
          "internalType": "uint256",
          "name": "numberWinner",
          "type": "uint256"
        }
      ],
      "name": "distributePrizes",
      "outputs": [],
      "stateMutability": "nonpayable",
      "type": "function"
    },
    {
      "inputs": [],
      "name": "resetData",
      "outputs": [],
      "stateMutability": "nonpayable",
      "type": "function"
    }
  ],
  "bytecode": "0x6080604052606460045534801561001557600080fd5b50604051610a48380380610a488339818101604052602081101561003857600080fd5b8101908080519060200190929190505050336000806101000a81548173ffffffffffffffffffffffffffffffffffffffff021916908373ffffffffffffffffffffffffffffffffffffffff1602179055506000811461009957806001819055505b5061099f806100a96000396000f3fe6080604052600436106100dd5760003560e01c80637365870b1161007f578063c38a8afd11610059578063c38a8afd146102d9578063e08a96cd14610304578063f71d96cb1461032f578063fe5e185314610394576100dd565b80637365870b146102605780638da5cb5b1461028e578063a9e10bf2146102cf576100dd565b806341c0e1b5116100bb57806341c0e1b51461018b578063478c4e0e146101a25780634b114691146101b95780636ca3fc3b14610225576100dd565b80630a50e361146100e25780632ca8c6d3146100f95780634081d91614610124575b600080fd5b3480156100ee57600080fd5b506100f76103bf565b005b34801561010557600080fd5b5061010e6103dd565b6040518082815260200191505060405180910390f35b34801561013057600080fd5b506101736004803603602081101561014757600080fd5b81019080803573ffffffffffffffffffffffffffffffffffffffff1690602001909291905050506103e3565b60405180821515815260200191505060405180910390f35b34801561019757600080fd5b506101a0610485565b005b3480156101ae57600080fd5b506101b7610514565b005b3480156101c557600080fd5b50610208600480360360208110156101dc57600080fd5b81019080803573ffffffffffffffffffffffffffffffffffffffff169060200190929190505050610526565b604051808381526020018281526020019250505060405180910390f35b34801561023157600080fd5b5061025e6004803603602081101561024857600080fd5b810190808035906020019092919050505061054a565b005b61028c6004803603602081101561027657600080fd5b810190808035906020019092919050505061076b565b005b34801561029a57600080fd5b506102a36108d2565b604051808273ffffffffffffffffffffffffffffffffffffffff16815260200191505060405180910390f35b6102d76108f6565b005b3480156102e557600080fd5b506102ee6108f8565b6040518082815260200191505060405180910390f35b34801561031057600080fd5b506103196108fe565b6040518082815260200191505060405180910390f35b34801561033b57600080fd5b506103686004803603602081101561035257600080fd5b8101908080359060200190929190505050610904565b604051808273ffffffffffffffffffffffffffffffffffffffff16815260200191505060405180910390f35b3480156103a057600080fd5b506103a9610940565b6040518082815260200191505060405180910390f35b60006001600a43816103cd57fe5b060190506103da8161054a565b50565b60035481565b600080600090505b60058054905081101561047a578273ffffffffffffffffffffffffffffffffffffffff166005828154811061041c57fe5b9060005260206000200160009054906101000a900473ffffffffffffffffffffffffffffffffffffffff1673ffffffffffffffffffffffffffffffffffffffff16141561046d576001915050610480565b80806001019150506103eb565b50600090505b919050565b60008054906101000a900473ffffffffffffffffffffffffffffffffffffffff1673ffffffffffffffffffffffffffffffffffffffff163373ffffffffffffffffffffffffffffffffffffffff1614156105125760008054906101000a900473ffffffffffffffffffffffffffffffffffffffff1673ffffffffffffffffffffffffffffffffffffffff16ff5b565b60006002819055506000600381905550565b60066020528060005260406000206000915090508060000154908060010154905082565b610552610946565b6000805b6005805490508110156106965760006005828154811061057257fe5b9060005260206000200160009054906101000a900473ffffffffffffffffffffffffffffffffffffffff16905084600660008373ffffffffffffffffffffffffffffffffffffffff1673ffffffffffffffffffffffffffffffffffffffff16815260200190815260200160002060010154141561063657808484606481106105f657fe5b602002019073ffffffffffffffffffffffffffffffffffffffff16908173ffffffffffffffffffffffffffffffffffffffff168152505082806001019350505b600660008273ffffffffffffffffffffffffffffffffffffffff1673ffffffffffffffffffffffffffffffffffffffff16815260200190815260200160002060008082016000905560018201600090555050508080600101915050610556565b5060006064600254816106a557fe5b04905060005b8281101561075c57600073ffffffffffffffffffffffffffffffffffffffff168482606481106106d757fe5b602002015173ffffffffffffffffffffffffffffffffffffffff161461074f5783816064811061070357fe5b602002015173ffffffffffffffffffffffffffffffffffffffff166108fc839081150290604051600060405180830381858888f1935050505015801561074d573d6000803e3d6000fd5b505b80806001019150506106ab565b50610765610514565b50505050565b610774336103e3565b1561077e57600080fd5b600181101580156107905750600a8111155b61079957600080fd5b6001543410156107a857600080fd5b34600660003373ffffffffffffffffffffffffffffffffffffffff1673ffffffffffffffffffffffffffffffffffffffff1681526020019081526020016000206000018190555080600660003373ffffffffffffffffffffffffffffffffffffffff1673ffffffffffffffffffffffffffffffffffffffff168152602001908152602001600020600101819055506003600081548092919060010191905055506005339080600181540180825580915050600190039060005260206000200160009091909190916101000a81548173ffffffffffffffffffffffffffffffffffffffff021916908373ffffffffffffffffffffffffffffffffffffffff16021790555034600260008282540192505081905550600454600354106108cf576108ce6103bf565b5b50565b60008054906101000a900473ffffffffffffffffffffffffffffffffffffffff1681565b565b60015481565b60045481565b6005818154811061091157fe5b906000526020600020016000915054906101000a900473ffffffffffffffffffffffffffffffffffffffff1681565b60025481565b60405180610c80016040528060649060208202803683378082019150509050509056fea2646970667358221220e9bcd5ab70a0937b7983efeb5d7edc9989aaf62e786934e2c249cc3bfc7a18a764736f6c63430007000033",
  "immutableReferences": {},
  "source": "// SPDX-License-Identifier: UNLICENSED\npragma solidity 0.7.0;\n\ncontract Casino {\n  address payable public owner;\n  uint256 public minimumBet;\n  uint256 public totalBet;\n  uint256 public numberOfBets;\n  uint256 public maxAmountOfBets = 100;\n  address payable[] public players;\n\n  struct Player {\n    uint256 amountBet;\n    uint256 numberSelected;\n  }\n\n  // The address of the player and => the user info\n  mapping(address => Player) public playerInfo;\n\n  constructor(uint256 _minimumBet) public {\n    owner = msg.sender;\n    if (_minimumBet != 0) minimumBet = _minimumBet;\n  }\n\n  function kill() public {\n    if (msg.sender == owner) selfdestruct(owner);\n  }\n\n  // Fallback function in case someone sends ether to the contract so it doesn't get lost and to increase the treasury of this contract that will be distributed in each game\n  function recieve() external payable {}\n\n  // To bet for a number between 1 and 10 both inclusive\n  function bet(uint256 numberSelected) public payable {\n    require(!checkPlayerExists(msg.sender));\n    require(numberSelected >= 1 && numberSelected <= 10);\n    require(msg.value >= minimumBet);\n    playerInfo[msg.sender].amountBet = msg.value;\n    playerInfo[msg.sender].numberSelected = numberSelected;\n    numberOfBets++;\n    players.push(msg.sender);\n    totalBet += msg.value;\n    if(numberOfBets >= maxAmountOfBets) generateNumberWinner();\n  }\n\n  // Generates a number between 1 and 10 that will be the winner\n  function generateNumberWinner() public {\n    uint256 numberGenerated = block.number % 10 + 1; // This isn't secure\n    distributePrizes(numberGenerated);\n  }\n\n  function checkPlayerExists(address player) public view returns(bool){\n    for(uint256 i = 0; i < players.length; i++){\n        if(players[i] == player) return true;\n    }\n    return false;\n  }\n\n  // Sends the corresponding ether to each winner depending on the total bets\n  function distributePrizes(uint256 numberWinner) public {\n    address payable[100] memory winners; // We have to create a temporary in memory array with fixed size\n    uint256 count = 0; // This is the count for the array of winners\n\n    for(uint256 i = 0; i < players.length; i++){\n        address payable playerAddress = players[i];\n        if(playerInfo[playerAddress].numberSelected == numberWinner){\n          winners[count] = playerAddress;\n          count++;\n        }\n        delete playerInfo[playerAddress]; // Delete all the players\n    }\n\n    uint256 winnerEtherAmount = totalBet / winners.length; // How much each winner gets\n    for(uint256 j = 0; j < count; j++){\n        if(winners[j] != address(0)) { // Check that the address in this fixed array is not empty\n          winners[j].transfer(winnerEtherAmount);\n        }\n    }\n\n    resetData();\n  }\n\n  function resetData() public {\n    totalBet = 0;\n    numberOfBets = 0;\n  }\n}\n",
  "sourcePath": "/Users/rickwong/Documents/GitHub/casino-ethereum/contracts/Casino.sol",
  "compiler": {
    "name": "solc",
    "version": "0.7.0+commit.9e61f92b.Emscripten.clang"
  },
  "schemaVersion": "3.2.5",
  "updatedAt": "2020-09-24T23:33:10.244Z",
  "devdoc": {
    "kind": "dev",
    "methods": {},
    "version": 1
  },
  "userdoc": {
    "kind": "user",
    "methods": {},
    "version": 1
  }
}